{
    "_format": "hh-sol-artifact-1",
    "contractName": "CrowdFunding",
    "sourceName": "contracts/CrowdFunding.sol",
    "abi": [
        {
            "inputs": [
                {
                    "internalType": "uint256",
                    "name": "_minimumContribution",
                    "type": "uint256"
                }
            ],
            "stateMutability": "nonpayable",
            "type": "constructor"
        },
        {
            "inputs": [
                {
                    "internalType": "uint256",
                    "name": "_campaignId",
                    "type": "uint256"
                }
            ],
            "name": "approveCamaignRequest",
            "outputs": [],
            "stateMutability": "nonpayable",
            "type": "function"
        },
        {
            "inputs": [
                {
                    "internalType": "uint256",
                    "name": "",
                    "type": "uint256"
                }
            ],
            "name": "campaigns",
            "outputs": [
                {
                    "internalType": "uint256",
                    "name": "id",
                    "type": "uint256"
                },
                {
                    "internalType": "address",
                    "name": "recepient",
                    "type": "address"
                },
                {
                    "internalType": "uint256",
                    "name": "requiredFunding",
                    "type": "uint256"
                },
                {
                    "internalType": "string",
                    "name": "ipfsUrl",
                    "type": "string"
                },
                {
                    "internalType": "uint256",
                    "name": "deadline",
                    "type": "uint256"
                },
                {
                    "internalType": "bool",
                    "name": "approved",
                    "type": "bool"
                },
                {
                    "internalType": "bool",
                    "name": "completed",
                    "type": "bool"
                },
                {
                    "internalType": "uint256",
                    "name": "raisedAmount",
                    "type": "uint256"
                }
            ],
            "stateMutability": "view",
            "type": "function"
        },
        {
            "inputs": [
                {
                    "internalType": "string",
                    "name": "ipfsUrl",
                    "type": "string"
                },
                {
                    "internalType": "uint256",
                    "name": "requiredFunding",
                    "type": "uint256"
                },
                {
                    "internalType": "uint256",
                    "name": "deadline",
                    "type": "uint256"
                }
            ],
            "name": "createCampaignRequest",
            "outputs": [],
            "stateMutability": "nonpayable",
            "type": "function"
        },
        {
            "inputs": [
                {
                    "internalType": "uint256",
                    "name": "_campaignId",
                    "type": "uint256"
                }
            ],
            "name": "fundCampaign",
            "outputs": [],
            "stateMutability": "payable",
            "type": "function"
        },
        {
            "inputs": [
                {
                    "internalType": "uint256",
                    "name": "",
                    "type": "uint256"
                },
                {
                    "internalType": "address",
                    "name": "",
                    "type": "address"
                }
            ],
            "name": "funders",
            "outputs": [
                {
                    "internalType": "uint256",
                    "name": "",
                    "type": "uint256"
                }
            ],
            "stateMutability": "view",
            "type": "function"
        },
        {
            "inputs": [],
            "name": "getCompletedCampaigns",
            "outputs": [
                {
                    "components": [
                        {
                            "internalType": "uint256",
                            "name": "id",
                            "type": "uint256"
                        },
                        {
                            "internalType": "address",
                            "name": "recepient",
                            "type": "address"
                        },
                        {
                            "internalType": "uint256",
                            "name": "requiredFunding",
                            "type": "uint256"
                        },
                        {
                            "internalType": "string",
                            "name": "ipfsUrl",
                            "type": "string"
                        },
                        {
                            "internalType": "uint256",
                            "name": "deadline",
                            "type": "uint256"
                        },
                        {
                            "internalType": "bool",
                            "name": "approved",
                            "type": "bool"
                        },
                        {
                            "internalType": "bool",
                            "name": "completed",
                            "type": "bool"
                        },
                        {
                            "internalType": "uint256",
                            "name": "raisedAmount",
                            "type": "uint256"
                        }
                    ],
                    "internalType": "struct CrowdFunding.Campaign[]",
                    "name": "",
                    "type": "tuple[]"
                }
            ],
            "stateMutability": "view",
            "type": "function"
        },
        {
            "inputs": [],
            "name": "getOnGoingCampaigns",
            "outputs": [
                {
                    "components": [
                        {
                            "internalType": "uint256",
                            "name": "id",
                            "type": "uint256"
                        },
                        {
                            "internalType": "address",
                            "name": "recepient",
                            "type": "address"
                        },
                        {
                            "internalType": "uint256",
                            "name": "requiredFunding",
                            "type": "uint256"
                        },
                        {
                            "internalType": "string",
                            "name": "ipfsUrl",
                            "type": "string"
                        },
                        {
                            "internalType": "uint256",
                            "name": "deadline",
                            "type": "uint256"
                        },
                        {
                            "internalType": "bool",
                            "name": "approved",
                            "type": "bool"
                        },
                        {
                            "internalType": "bool",
                            "name": "completed",
                            "type": "bool"
                        },
                        {
                            "internalType": "uint256",
                            "name": "raisedAmount",
                            "type": "uint256"
                        }
                    ],
                    "internalType": "struct CrowdFunding.Campaign[]",
                    "name": "",
                    "type": "tuple[]"
                }
            ],
            "stateMutability": "view",
            "type": "function"
        },
        {
            "inputs": [],
            "name": "getPendingCampaigns",
            "outputs": [
                {
                    "components": [
                        {
                            "internalType": "uint256",
                            "name": "id",
                            "type": "uint256"
                        },
                        {
                            "internalType": "address",
                            "name": "recepient",
                            "type": "address"
                        },
                        {
                            "internalType": "uint256",
                            "name": "requiredFunding",
                            "type": "uint256"
                        },
                        {
                            "internalType": "string",
                            "name": "ipfsUrl",
                            "type": "string"
                        },
                        {
                            "internalType": "uint256",
                            "name": "deadline",
                            "type": "uint256"
                        },
                        {
                            "internalType": "bool",
                            "name": "approved",
                            "type": "bool"
                        },
                        {
                            "internalType": "bool",
                            "name": "completed",
                            "type": "bool"
                        },
                        {
                            "internalType": "uint256",
                            "name": "raisedAmount",
                            "type": "uint256"
                        }
                    ],
                    "internalType": "struct CrowdFunding.Campaign[]",
                    "name": "",
                    "type": "tuple[]"
                }
            ],
            "stateMutability": "view",
            "type": "function"
        },
        {
            "inputs": [],
            "name": "isAdmin",
            "outputs": [
                {
                    "internalType": "bool",
                    "name": "",
                    "type": "bool"
                }
            ],
            "stateMutability": "view",
            "type": "function"
        },
        {
            "inputs": [],
            "name": "minimumContribution",
            "outputs": [
                {
                    "internalType": "uint256",
                    "name": "",
                    "type": "uint256"
                }
            ],
            "stateMutability": "view",
            "type": "function"
        },
        {
            "inputs": [
                {
                    "internalType": "uint256",
                    "name": "_minimumContribution",
                    "type": "uint256"
                }
            ],
            "name": "updateMinimumContribution",
            "outputs": [],
            "stateMutability": "nonpayable",
            "type": "function"
        }
    ],
    "bytecode": "0x60806040523480156200001157600080fd5b5060405162001bc638038062001bc68339818101604052810190620000379190620000c5565b336000806101000a81548173ffffffffffffffffffffffffffffffffffffffff021916908373ffffffffffffffffffffffffffffffffffffffff1602179055508060058190555050620000f7565b600080fd5b6000819050919050565b6200009f816200008a565b8114620000ab57600080fd5b50565b600081519050620000bf8162000094565b92915050565b600060208284031215620000de57620000dd62000085565b5b6000620000ee84828501620000ae565b91505092915050565b611abf80620001076000396000f3fe60806040526004361061009c5760003560e01c8063937e09b111610064578063937e09b114610194578063acd1bdb4146101bf578063b6db75a0146101e8578063bb31e87014610213578063bc4b0df71461023c578063c41e5061146102655761009c565b8063141961bc146100a1578063148038b0146100e55780633c3ae5b8146101225780636a7a67631461014d57806392bd38bc14610178575b600080fd5b3480156100ad57600080fd5b506100c860048036038101906100c39190610e37565b610290565b6040516100dc989796959493929190610f5f565b60405180910390f35b3480156100f157600080fd5b5061010c60048036038101906101079190611010565b61039a565b6040516101199190611050565b60405180910390f35b34801561012e57600080fd5b506101376103bf565b6040516101449190611254565b60405180910390f35b34801561015957600080fd5b506101626103d7565b60405161016f9190611254565b60405180910390f35b610192600480360381019061018d9190610e37565b6103f0565b005b3480156101a057600080fd5b506101a9610700565b6040516101b69190611050565b60405180910390f35b3480156101cb57600080fd5b506101e660048036038101906101e19190610e37565b610706565b005b3480156101f457600080fd5b506101fd61079e565b60405161020a9190611276565b60405180910390f35b34801561021f57600080fd5b5061023a60048036038101906102359190610e37565b6107f5565b005b34801561024857600080fd5b50610263600480360381019061025e91906113c6565b610910565b005b34801561027157600080fd5b5061027a610a63565b6040516102879190611254565b60405180910390f35b60026020528060005260406000206000915090508060000154908060010160009054906101000a900473ffffffffffffffffffffffffffffffffffffffff16908060020154908060030180546102e590611464565b80601f016020809104026020016040519081016040528092919081815260200182805461031190611464565b801561035e5780601f106103335761010080835404028352916020019161035e565b820191906000526020600020905b81548152906001019060200180831161034157829003601f168201915b5050505050908060040154908060050160009054906101000a900460ff16908060050160019054906101000a900460ff16908060060154905088565b6003602052816000526040600020602052806000526040600020600091509150505481565b606060006103ce600180610a7b565b90508091505090565b606060006103e760016000610a7b565b90508091505090565b80600060026000838152602001908152602001600020600001540361044a576040517f08c379a0000000000000000000000000000000000000000000000000000000008152600401610441906114e1565b60405180910390fd5b60055434101561048f576040517f08c379a000000000000000000000000000000000000000000000000000000000815260040161048690611573565b60405180910390fd5b6002600083815260200190815260200160002060050160019054906101000a900460ff16156104f3576040517f08c379a00000000000000000000000000000000000000000000000000000000081526004016104ea906115df565b60405180910390fd5b6002600083815260200190815260200160002060040154421061054b576040517f08c379a00000000000000000000000000000000000000000000000000000000081526004016105429061164b565b60405180910390fd5b346003600084815260200190815260200160002060003373ffffffffffffffffffffffffffffffffffffffff1673ffffffffffffffffffffffffffffffffffffffff16815260200190815260200160002060008282546105ab919061169a565b92505081905550346002600084815260200190815260200160002060060160008282546105d8919061169a565b9250508190555060026000838152602001908152602001600020600201546002600084815260200190815260200160002060060154106106fc5760006002600084815260200190815260200160002060020154600260008581526020019081526020016000206006015461064c91906116ce565b9050600081146106cb573373ffffffffffffffffffffffffffffffffffffffff166108fc829081150290604051600060405180830381858888f1935050505015801561069c573d6000803e3d6000fd5b50806002600085815260200190815260200160002060060160008282546106c391906116ce565b925050819055505b60016002600085815260200190815260200160002060050160016101000a81548160ff021916908315150217905550505b5050565b60055481565b60008054906101000a900473ffffffffffffffffffffffffffffffffffffffff1673ffffffffffffffffffffffffffffffffffffffff163373ffffffffffffffffffffffffffffffffffffffff1614610794576040517f08c379a000000000000000000000000000000000000000000000000000000000815260040161078b90611774565b60405180910390fd5b8060058190555050565b60008060009054906101000a900473ffffffffffffffffffffffffffffffffffffffff1673ffffffffffffffffffffffffffffffffffffffff163373ffffffffffffffffffffffffffffffffffffffff1614905090565b60008054906101000a900473ffffffffffffffffffffffffffffffffffffffff1673ffffffffffffffffffffffffffffffffffffffff163373ffffffffffffffffffffffffffffffffffffffff1614610883576040517f08c379a000000000000000000000000000000000000000000000000000000000815260040161087a90611774565b60405180910390fd5b8060006002600083815260200190815260200160002060000154036108dd576040517f08c379a00000000000000000000000000000000000000000000000000000000081526004016108d4906114e1565b60405180910390fd5b60016002600084815260200190815260200160002060050160006101000a81548160ff0219169083151502179055505050565b6001600081548092919061092390611794565b919050555060405180610100016040528060015481526020013373ffffffffffffffffffffffffffffffffffffffff16815260200183815260200184815260200182815260200160001515815260200160001515815260200160008152506002600060015481526020019081526020016000206000820151816000015560208201518160010160006101000a81548173ffffffffffffffffffffffffffffffffffffffff021916908373ffffffffffffffffffffffffffffffffffffffff160217905550604082015181600201556060820151816003019081610a069190611988565b506080820151816004015560a08201518160050160006101000a81548160ff02191690831515021790555060c08201518160050160016101000a81548160ff02191690831515021790555060e08201518160060155905050505050565b60606000610a72600080610a7b565b90508091505090565b6060600080600190505b6001548111610b11578415156002600083815260200190815260200160002060050160009054906101000a900460ff161515148015610aea57508315156002600083815260200190815260200160002060050160019054906101000a900460ff161515145b15610afe578180610afa90611794565b9250505b8080610b0990611794565b915050610a85565b5060008167ffffffffffffffff811115610b2e57610b2d61129b565b5b604051908082528060200260200182016040528015610b6757816020015b610b54610d8e565b815260200190600190039081610b4c5790505b509050600080600190505b6001548111610d81578615156002600083815260200190815260200160002060050160009054906101000a900460ff161515148015610bd757508515156002600083815260200190815260200160002060050160019054906101000a900460ff161515145b15610d6e576002600082815260200190815260200160002060405180610100016040529081600082015481526020016001820160009054906101000a900473ffffffffffffffffffffffffffffffffffffffff1673ffffffffffffffffffffffffffffffffffffffff1673ffffffffffffffffffffffffffffffffffffffff16815260200160028201548152602001600382018054610c7590611464565b80601f0160208091040260200160405190810160405280929190818152602001828054610ca190611464565b8015610cee5780601f10610cc357610100808354040283529160200191610cee565b820191906000526020600020905b815481529060010190602001808311610cd157829003601f168201915b50505050508152602001600482015481526020016005820160009054906101000a900460ff161515151581526020016005820160019054906101000a900460ff16151515158152602001600682015481525050838381518110610d5457610d53611a5a565b5b60200260200101819052508180610d6a90611794565b9250505b8080610d7990611794565b915050610b72565b5081935050505092915050565b60405180610100016040528060008152602001600073ffffffffffffffffffffffffffffffffffffffff168152602001600081526020016060815260200160008152602001600015158152602001600015158152602001600081525090565b6000604051905090565b600080fd5b600080fd5b6000819050919050565b610e1481610e01565b8114610e1f57600080fd5b50565b600081359050610e3181610e0b565b92915050565b600060208284031215610e4d57610e4c610df7565b5b6000610e5b84828501610e22565b91505092915050565b610e6d81610e01565b82525050565b600073ffffffffffffffffffffffffffffffffffffffff82169050919050565b6000610e9e82610e73565b9050919050565b610eae81610e93565b82525050565b600081519050919050565b600082825260208201905092915050565b60005b83811015610eee578082015181840152602081019050610ed3565b60008484015250505050565b6000601f19601f8301169050919050565b6000610f1682610eb4565b610f208185610ebf565b9350610f30818560208601610ed0565b610f3981610efa565b840191505092915050565b60008115159050919050565b610f5981610f44565b82525050565b600061010082019050610f75600083018b610e64565b610f82602083018a610ea5565b610f8f6040830189610e64565b8181036060830152610fa18188610f0b565b9050610fb06080830187610e64565b610fbd60a0830186610f50565b610fca60c0830185610f50565b610fd760e0830184610e64565b9998505050505050505050565b610fed81610e93565b8114610ff857600080fd5b50565b60008135905061100a81610fe4565b92915050565b6000806040838503121561102757611026610df7565b5b600061103585828601610e22565b925050602061104685828601610ffb565b9150509250929050565b60006020820190506110656000830184610e64565b92915050565b600081519050919050565b600082825260208201905092915050565b6000819050602082019050919050565b6110a081610e01565b82525050565b6110af81610e93565b82525050565b600082825260208201905092915050565b60006110d182610eb4565b6110db81856110b5565b93506110eb818560208601610ed0565b6110f481610efa565b840191505092915050565b61110881610f44565b82525050565b6000610100830160008301516111276000860182611097565b50602083015161113a60208601826110a6565b50604083015161114d6040860182611097565b506060830151848203606086015261116582826110c6565b915050608083015161117a6080860182611097565b5060a083015161118d60a08601826110ff565b5060c08301516111a060c08601826110ff565b5060e08301516111b360e0860182611097565b508091505092915050565b60006111ca838361110e565b905092915050565b6000602082019050919050565b60006111ea8261106b565b6111f48185611076565b93508360208202850161120685611087565b8060005b85811015611242578484038952815161122385826111be565b945061122e836111d2565b925060208a0199505060018101905061120a565b50829750879550505050505092915050565b6000602082019050818103600083015261126e81846111df565b905092915050565b600060208201905061128b6000830184610f50565b92915050565b600080fd5b600080fd5b7f4e487b7100000000000000000000000000000000000000000000000000000000600052604160045260246000fd5b6112d382610efa565b810181811067ffffffffffffffff821117156112f2576112f161129b565b5b80604052505050565b6000611305610ded565b905061131182826112ca565b919050565b600067ffffffffffffffff8211156113315761133061129b565b5b61133a82610efa565b9050602081019050919050565b82818337600083830152505050565b600061136961136484611316565b6112fb565b90508281526020810184848401111561138557611384611296565b5b611390848285611347565b509392505050565b600082601f8301126113ad576113ac611291565b5b81356113bd848260208601611356565b91505092915050565b6000806000606084860312156113df576113de610df7565b5b600084013567ffffffffffffffff8111156113fd576113fc610dfc565b5b61140986828701611398565b935050602061141a86828701610e22565b925050604061142b86828701610e22565b9150509250925092565b7f4e487b7100000000000000000000000000000000000000000000000000000000600052602260045260246000fd5b6000600282049050600182168061147c57607f821691505b60208210810361148f5761148e611435565b5b50919050565b7f43616d706169676e20646f6573206e6f74206578697374000000000000000000600082015250565b60006114cb601783610ebf565b91506114d682611495565b602082019050919050565b600060208201905081810360008301526114fa816114be565b9050919050565b7f46756e642073686f756c642062652067726561746572207468616e206f72206560008201527f7175616c20746f206d696e696d756d20636f6e747269627574696f6e00000000602082015250565b600061155d603c83610ebf565b915061156882611501565b604082019050919050565b6000602082019050818103600083015261158c81611550565b9050919050565b7f43616d706169676e20636c6f7365640000000000000000000000000000000000600082015250565b60006115c9600f83610ebf565b91506115d482611593565b602082019050919050565b600060208201905081810360008301526115f8816115bc565b9050919050565b7f4465646c696e6520686173206d65740000000000000000000000000000000000600082015250565b6000611635600f83610ebf565b9150611640826115ff565b602082019050919050565b6000602082019050818103600083015261166481611628565b9050919050565b7f4e487b7100000000000000000000000000000000000000000000000000000000600052601160045260246000fd5b60006116a582610e01565b91506116b083610e01565b92508282019050808211156116c8576116c761166b565b5b92915050565b60006116d982610e01565b91506116e483610e01565b92508282039050818111156116fc576116fb61166b565b5b92915050565b7f4f6e6c792041646d696e2063616e2061636365737320746869732066756e746960008201527f6f6e000000000000000000000000000000000000000000000000000000000000602082015250565b600061175e602283610ebf565b915061176982611702565b604082019050919050565b6000602082019050818103600083015261178d81611751565b9050919050565b600061179f82610e01565b91507fffffffffffffffffffffffffffffffffffffffffffffffffffffffffffffffff82036117d1576117d061166b565b5b600182019050919050565b60008190508160005260206000209050919050565b60006020601f8301049050919050565b600082821b905092915050565b60006008830261183e7fffffffffffffffffffffffffffffffffffffffffffffffffffffffffffffffff82611801565b6118488683611801565b95508019841693508086168417925050509392505050565b6000819050919050565b600061188561188061187b84610e01565b611860565b610e01565b9050919050565b6000819050919050565b61189f8361186a565b6118b36118ab8261188c565b84845461180e565b825550505050565b600090565b6118c86118bb565b6118d3818484611896565b505050565b5b818110156118f7576118ec6000826118c0565b6001810190506118d9565b5050565b601f82111561193c5761190d816117dc565b611916846117f1565b81016020851015611925578190505b611939611931856117f1565b8301826118d8565b50505b505050565b600082821c905092915050565b600061195f60001984600802611941565b1980831691505092915050565b6000611978838361194e565b9150826002028217905092915050565b61199182610eb4565b67ffffffffffffffff8111156119aa576119a961129b565b5b6119b48254611464565b6119bf8282856118fb565b600060209050601f8311600181146119f257600084156119e0578287015190505b6119ea858261196c565b865550611a52565b601f198416611a00866117dc565b60005b82811015611a2857848901518255600182019150602085019450602081019050611a03565b86831015611a455784890151611a41601f89168261194e565b8355505b6001600288020188555050505b505050505050565b7f4e487b7100000000000000000000000000000000000000000000000000000000600052603260045260246000fdfea2646970667358221220a258ac6855b85f1693812852547c86b77f0abb34467f31620c800e4c59834e3864736f6c63430008110033",
    "linkReferences": {},
    "deployedLinkReferences": {}
}